{
  "contractName": "TenderManagement",
  "abi": [
    {
      "inputs": [],
      "stateMutability": "nonpayable",
      "type": "constructor"
    },
    {
      "anonymous": false,
      "inputs": [
        {
          "indexed": true,
          "internalType": "address",
          "name": "sender",
          "type": "address"
        },
        {
          "indexed": false,
          "internalType": "uint256",
          "name": "amount",
          "type": "uint256"
        }
      ],
      "name": "EtherReceived",
      "type": "event"
    },
    {
      "inputs": [],
      "name": "admin",
      "outputs": [
        {
          "internalType": "address",
          "name": "",
          "type": "address"
        }
      ],
      "stateMutability": "view",
      "type": "function",
      "constant": true
    },
    {
      "inputs": [
        {
          "internalType": "address",
          "name": "",
          "type": "address"
        }
      ],
      "name": "contractors",
      "outputs": [
        {
          "internalType": "string",
          "name": "name",
          "type": "string"
        },
        {
          "internalType": "string",
          "name": "description",
          "type": "string"
        },
        {
          "internalType": "uint256",
          "name": "reputation",
          "type": "uint256"
        },
        {
          "internalType": "uint256",
          "name": "totalContracts",
          "type": "uint256"
        },
        {
          "internalType": "bool",
          "name": "isBlacklisted",
          "type": "bool"
        }
      ],
      "stateMutability": "view",
      "type": "function",
      "constant": true
    },
    {
      "inputs": [
        {
          "internalType": "uint256",
          "name": "",
          "type": "uint256"
        }
      ],
      "name": "contractorsAddresses",
      "outputs": [
        {
          "internalType": "address",
          "name": "",
          "type": "address"
        }
      ],
      "stateMutability": "view",
      "type": "function",
      "constant": true
    },
    {
      "inputs": [],
      "name": "contractsCounter",
      "outputs": [
        {
          "internalType": "uint256",
          "name": "",
          "type": "uint256"
        }
      ],
      "stateMutability": "view",
      "type": "function",
      "constant": true
    },
    {
      "inputs": [
        {
          "internalType": "address",
          "name": "",
          "type": "address"
        }
      ],
      "name": "governmentOfficials",
      "outputs": [
        {
          "internalType": "string",
          "name": "",
          "type": "string"
        }
      ],
      "stateMutability": "view",
      "type": "function",
      "constant": true
    },
    {
      "inputs": [],
      "name": "tenderCount",
      "outputs": [
        {
          "internalType": "uint256",
          "name": "",
          "type": "uint256"
        }
      ],
      "stateMutability": "view",
      "type": "function",
      "constant": true
    },
    {
      "inputs": [
        {
          "internalType": "uint256",
          "name": "",
          "type": "uint256"
        }
      ],
      "name": "tenders",
      "outputs": [
        {
          "internalType": "address",
          "name": "governmentOfficial",
          "type": "address"
        },
        {
          "internalType": "string",
          "name": "description",
          "type": "string"
        },
        {
          "internalType": "uint256",
          "name": "deadline",
          "type": "uint256"
        },
        {
          "internalType": "uint256",
          "name": "budget",
          "type": "uint256"
        },
        {
          "internalType": "uint256",
          "name": "totalBids",
          "type": "uint256"
        },
        {
          "internalType": "enum TenderManagement.TenderStatus",
          "name": "status",
          "type": "uint8"
        }
      ],
      "stateMutability": "view",
      "type": "function",
      "constant": true
    },
    {
      "stateMutability": "payable",
      "type": "receive",
      "payable": true
    },
    {
      "inputs": [
        {
          "internalType": "address",
          "name": "_official",
          "type": "address"
        },
        {
          "internalType": "string",
          "name": "_name",
          "type": "string"
        }
      ],
      "name": "addGovernmentOfficial",
      "outputs": [],
      "stateMutability": "nonpayable",
      "type": "function"
    },
    {
      "inputs": [
        {
          "internalType": "string",
          "name": "_description",
          "type": "string"
        },
        {
          "internalType": "uint256",
          "name": "_deadline",
          "type": "uint256"
        },
        {
          "internalType": "uint256",
          "name": "_budget",
          "type": "uint256"
        }
      ],
      "name": "createTender",
      "outputs": [],
      "stateMutability": "nonpayable",
      "type": "function"
    },
    {
      "inputs": [
        {
          "internalType": "uint256",
          "name": "_tenderId",
          "type": "uint256"
        },
        {
          "internalType": "uint256",
          "name": "_bidAmount",
          "type": "uint256"
        }
      ],
      "name": "submitBid",
      "outputs": [],
      "stateMutability": "nonpayable",
      "type": "function"
    },
    {
      "inputs": [
        {
          "internalType": "uint256",
          "name": "_tenderId",
          "type": "uint256"
        },
        {
          "internalType": "uint256",
          "name": "_rating",
          "type": "uint256"
        }
      ],
      "name": "provideFeedback",
      "outputs": [],
      "stateMutability": "nonpayable",
      "type": "function"
    },
    {
      "inputs": [
        {
          "internalType": "address",
          "name": "_contractorAddress",
          "type": "address"
        }
      ],
      "name": "blacklistContractor",
      "outputs": [],
      "stateMutability": "nonpayable",
      "type": "function"
    },
    {
      "inputs": [
        {
          "internalType": "address",
          "name": "_contractorAddress",
          "type": "address"
        }
      ],
      "name": "checkContractorBlacklistStatus",
      "outputs": [
        {
          "internalType": "bool",
          "name": "",
          "type": "bool"
        }
      ],
      "stateMutability": "view",
      "type": "function",
      "constant": true
    },
    {
      "inputs": [
        {
          "internalType": "uint256",
          "name": "_tenderId",
          "type": "uint256"
        },
        {
          "internalType": "address payable",
          "name": "_winningBidder",
          "type": "address"
        }
      ],
      "name": "awardTender",
      "outputs": [],
      "stateMutability": "payable",
      "type": "function",
      "payable": true
    },
    {
      "inputs": [
        {
          "internalType": "uint256",
          "name": "_tenderId",
          "type": "uint256"
        },
        {
          "internalType": "uint256",
          "name": "_percentage",
          "type": "uint256"
        }
      ],
      "name": "updateWorkProgress",
      "outputs": [],
      "stateMutability": "nonpayable",
      "type": "function"
    },
    {
      "inputs": [
        {
          "internalType": "uint256",
          "name": "_tenderId",
          "type": "uint256"
        }
      ],
      "name": "closeTender",
      "outputs": [],
      "stateMutability": "nonpayable",
      "type": "function"
    },
    {
      "inputs": [
        {
          "internalType": "address",
          "name": "_contractorAddress",
          "type": "address"
        },
        {
          "internalType": "string",
          "name": "_name",
          "type": "string"
        },
        {
          "internalType": "string",
          "name": "_description",
          "type": "string"
        }
      ],
      "name": "addContractor",
      "outputs": [],
      "stateMutability": "nonpayable",
      "type": "function"
    },
    {
      "inputs": [
        {
          "internalType": "uint256",
          "name": "_tenderId",
          "type": "uint256"
        },
        {
          "internalType": "address",
          "name": "_contractorAddress",
          "type": "address"
        }
      ],
      "name": "assignContract",
      "outputs": [],
      "stateMutability": "nonpayable",
      "type": "function"
    },
    {
      "inputs": [
        {
          "internalType": "uint256",
          "name": "_tenderId",
          "type": "uint256"
        }
      ],
      "name": "getAssignedContract",
      "outputs": [
        {
          "internalType": "address",
          "name": "contractorAddress",
          "type": "address"
        }
      ],
      "stateMutability": "view",
      "type": "function",
      "constant": true
    },
    {
      "inputs": [
        {
          "internalType": "uint256",
          "name": "_tenderId",
          "type": "uint256"
        }
      ],
      "name": "getTenderDetails",
      "outputs": [
        {
          "internalType": "address",
          "name": "governmentOfficial",
          "type": "address"
        },
        {
          "internalType": "string",
          "name": "description",
          "type": "string"
        },
        {
          "internalType": "uint256",
          "name": "deadline",
          "type": "uint256"
        },
        {
          "internalType": "uint256",
          "name": "budget",
          "type": "uint256"
        },
        {
          "internalType": "uint256",
          "name": "totalBids",
          "type": "uint256"
        },
        {
          "internalType": "enum TenderManagement.TenderStatus",
          "name": "status",
          "type": "uint8"
        }
      ],
      "stateMutability": "view",
      "type": "function",
      "constant": true
    },
    {
      "inputs": [
        {
          "internalType": "uint256",
          "name": "_tenderId",
          "type": "uint256"
        },
        {
          "internalType": "address",
          "name": "_bidder",
          "type": "address"
        }
      ],
      "name": "getBidAmount",
      "outputs": [
        {
          "internalType": "uint256",
          "name": "",
          "type": "uint256"
        }
      ],
      "stateMutability": "view",
      "type": "function",
      "constant": true
    },
    {
      "inputs": [
        {
          "internalType": "uint256",
          "name": "_tenderId",
          "type": "uint256"
        },
        {
          "internalType": "address",
          "name": "_contractor",
          "type": "address"
        }
      ],
      "name": "getFeedback",
      "outputs": [
        {
          "internalType": "uint256",
          "name": "",
          "type": "uint256"
        }
      ],
      "stateMutability": "view",
      "type": "function",
      "constant": true
    },
    {
      "inputs": [
        {
          "internalType": "address",
          "name": "_contractorAddress",
          "type": "address"
        }
      ],
      "name": "getContractorDetails",
      "outputs": [
        {
          "internalType": "string",
          "name": "name",
          "type": "string"
        },
        {
          "internalType": "string",
          "name": "description",
          "type": "string"
        },
        {
          "internalType": "uint256",
          "name": "reputation",
          "type": "uint256"
        },
        {
          "internalType": "uint256",
          "name": "totalContracts",
          "type": "uint256"
        },
        {
          "internalType": "bool",
          "name": "isBlacklisted",
          "type": "bool"
        }
      ],
      "stateMutability": "view",
      "type": "function",
      "constant": true
    },
    {
      "inputs": [
        {
          "internalType": "uint256",
          "name": "_tenderId",
          "type": "uint256"
        },
        {
          "internalType": "address",
          "name": "_contractor",
          "type": "address"
        }
      ],
      "name": "getContractorWorkProgress",
      "outputs": [
        {
          "internalType": "uint256",
          "name": "",
          "type": "uint256"
        }
      ],
      "stateMutability": "view",
      "type": "function",
      "constant": true
    },
    {
      "inputs": [
        {
          "internalType": "uint256",
          "name": "_tenderId",
          "type": "uint256"
        }
      ],
      "name": "getAllFeedback",
      "outputs": [
        {
          "internalType": "address[]",
          "name": "",
          "type": "address[]"
        },
        {
          "internalType": "uint256[]",
          "name": "",
          "type": "uint256[]"
        }
      ],
      "stateMutability": "view",
      "type": "function",
      "constant": true
    },
    {
      "inputs": [
        {
          "internalType": "uint256",
          "name": "_tenderId",
          "type": "uint256"
        }
      ],
      "name": "getAllBids",
      "outputs": [
        {
          "internalType": "address[]",
          "name": "",
          "type": "address[]"
        },
        {
          "internalType": "uint256[]",
          "name": "",
          "type": "uint256[]"
        }
      ],
      "stateMutability": "view",
      "type": "function",
      "constant": true
    },
    {
      "inputs": [],
      "name": "getAllTenders",
      "outputs": [
        {
          "internalType": "uint256[]",
          "name": "tenderIds",
          "type": "uint256[]"
        },
        {
          "internalType": "address[]",
          "name": "officials",
          "type": "address[]"
        },
        {
          "internalType": "string[]",
          "name": "descriptions",
          "type": "string[]"
        },
        {
          "internalType": "uint256[]",
          "name": "deadlines",
          "type": "uint256[]"
        },
        {
          "internalType": "uint256[]",
          "name": "budgets",
          "type": "uint256[]"
        },
        {
          "internalType": "uint256[]",
          "name": "totalBids",
          "type": "uint256[]"
        },
        {
          "internalType": "enum TenderManagement.TenderStatus[]",
          "name": "statuses",
          "type": "uint8[]"
        }
      ],
      "stateMutability": "view",
      "type": "function",
      "constant": true
    }
  ],
  "bytecode": "0x608060405234801561001057600080fd5b5033600460006101000a81548173ffffffffffffffffffffffffffffffffffffffff021916908373ffffffffffffffffffffffffffffffffffffffff160217905550614341806100616000396000f3fe60806040526004361061019f5760003560e01c80636a68667b116100ec578063b821da1b1161008a578063e35569a611610064578063e35569a614610693578063e5c3bf57146106d4578063e6604e7d14610711578063f851a4401461073a576101f4565b8063b821da1b14610602578063cc9f3ab61461062b578063e17fd2d714610656576101f4565b80639ff70a34116100c65780639ff70a341461052e578063a528ff831461056b578063a941ca75146105a9578063b47089b4146105c5576101f4565b80636a68667b1461049f5780636ab42755146104c85780638e62fbeb14610505576101f4565b8063342d7d64116101595780634ad00556116101335780634ad00556146103ca57806353ee895d1461040b57806354dd43b71461044d5780635d06d7af14610476576101f4565b8063342d7d64146103215780633ffd42391461034a578063465e1def14610388576101f4565b8062cda3da146101f9578063018ab1d81461022257806314f358d21461024b5780631f05877614610288578063231b05e0146102b35780632358c046146102f0576101f4565b366101f4573373ffffffffffffffffffffffffffffffffffffffff167f1e57e3bb474320be3d2c77138f75b7c3941292d647f5f9634e33a8e94e0e069b346040516101ea9190613f11565b60405180910390a2005b600080fd5b34801561020557600080fd5b50610220600480360381019061021b919061335d565b610765565b005b34801561022e57600080fd5b50610249600480360381019061024491906131fa565b61097d565b005b34801561025757600080fd5b50610272600480360381019061026d91906131fa565b610ac0565b60405161027f9190613cd3565b60405180910390f35b34801561029457600080fd5b5061029d610b18565b6040516102aa9190613f11565b60405180910390f35b3480156102bf57600080fd5b506102da60048036038101906102d5919061335d565b610b1e565b6040516102e79190613b79565b60405180910390f35b3480156102fc57600080fd5b50610305610cb9565b6040516103189796959493929190613c33565b60405180910390f35b34801561032d57600080fd5b5061034860048036038101906103439190613223565b61137e565b005b34801561035657600080fd5b50610371600480360381019061036c919061335d565b611466565b60405161037f929190613bfc565b60405180910390f35b34801561039457600080fd5b506103af60048036038101906103aa919061335d565b611767565b6040516103c196959493929190613b94565b60405180910390f35b3480156103d657600080fd5b506103f160048036038101906103ec91906131fa565b611858565b604051610402959493929190613d10565b60405180910390f35b34801561041757600080fd5b50610432600480360381019061042d919061335d565b6119f1565b60405161044496959493929190613b94565b60405180910390f35b34801561045957600080fd5b50610474600480360381019061046f9190613277565b611afe565b005b34801561048257600080fd5b5061049d600480360381019061049891906133fe565b611cf2565b005b3480156104ab57600080fd5b506104c660048036038101906104c19190613386565b611e85565b005b3480156104d457600080fd5b506104ef60048036038101906104ea9190613386565b6121ab565b6040516104fc9190613f11565b60405180910390f35b34801561051157600080fd5b5061052c600480360381019061052791906133fe565b612209565b005b34801561053a57600080fd5b5061055560048036038101906105509190613386565b612345565b6040516105629190613f11565b60405180910390f35b34801561057757600080fd5b50610592600480360381019061058d919061335d565b6123a2565b6040516105a0929190613bfc565b60405180910390f35b6105c360048036038101906105be91906133c2565b6126a3565b005b3480156105d157600080fd5b506105ec60048036038101906105e79190613386565b61299e565b6040516105f99190613f11565b60405180910390f35b34801561060e57600080fd5b50610629600480360381019061062491906133fe565b6129fc565b005b34801561063757600080fd5b50610640612c74565b60405161064d9190613f11565b60405180910390f35b34801561066257600080fd5b5061067d6004803603810190610678919061335d565b612c7a565b60405161068a9190613b79565b60405180910390f35b34801561069f57600080fd5b506106ba60048036038101906106b591906131fa565b612cb9565b6040516106cb959493929190613d10565b60405180910390f35b3480156106e057600080fd5b506106fb60048036038101906106f691906131fa565b612e0c565b6040516107089190613cee565b60405180910390f35b34801561071d57600080fd5b50610738600480360381019061073391906132f6565b612eac565b005b34801561074657600080fd5b5061074f61308a565b60405161075c9190613b79565b60405180910390f35b600460009054906101000a900473ffffffffffffffffffffffffffffffffffffffff1673ffffffffffffffffffffffffffffffffffffffff163373ffffffffffffffffffffffffffffffffffffffff16148061080c57506000600160003373ffffffffffffffffffffffffffffffffffffffff1673ffffffffffffffffffffffffffffffffffffffff16815260200190815260200160002080546108089061416a565b9050115b61084b576040517f08c379a000000000000000000000000000000000000000000000000000000000815260040161084290613ef1565b60405180910390fd5b60006002600083815260200190815260200160002090506000600281111561089c577f4e487b7100000000000000000000000000000000000000000000000000000000600052602160045260246000fd5b8160060160009054906101000a900460ff1660028111156108e6577f4e487b7100000000000000000000000000000000000000000000000000000000600052602160045260246000fd5b14610926576040517f08c379a000000000000000000000000000000000000000000000000000000000815260040161091d90613d71565b60405180910390fd5b60018160060160006101000a81548160ff02191690836002811115610974577f4e487b7100000000000000000000000000000000000000000000000000000000600052602160045260246000fd5b02179055505050565b600460009054906101000a900473ffffffffffffffffffffffffffffffffffffffff1673ffffffffffffffffffffffffffffffffffffffff163373ffffffffffffffffffffffffffffffffffffffff161480610a2457506000600160003373ffffffffffffffffffffffffffffffffffffffff1673ffffffffffffffffffffffffffffffffffffffff1681526020019081526020016000208054610a209061416a565b9050115b610a63576040517f08c379a0000000000000000000000000000000000000000000000000000000008152600401610a5a90613ef1565b60405180910390fd5b60016000808373ffffffffffffffffffffffffffffffffffffffff1673ffffffffffffffffffffffffffffffffffffffff16815260200190815260200160002060050160006101000a81548160ff02191690831515021790555050565b60008060008373ffffffffffffffffffffffffffffffffffffffff1673ffffffffffffffffffffffffffffffffffffffff16815260200190815260200160002060050160009054906101000a900460ff169050919050565b60035481565b600080600090505b600680549050811015610c7857600080600060068481548110610b72577f4e487b7100000000000000000000000000000000000000000000000000000000600052603260045260246000fd5b9060005260206000200160009054906101000a900473ffffffffffffffffffffffffffffffffffffffff1673ffffffffffffffffffffffffffffffffffffffff1673ffffffffffffffffffffffffffffffffffffffff168152602001908152602001600020905060008160040160008681526020019081526020016000205414610c645760068281548110610c30577f4e487b7100000000000000000000000000000000000000000000000000000000600052603260045260246000fd5b9060005260206000200160009054906101000a900473ffffffffffffffffffffffffffffffffffffffff1692505050610cb4565b508080610c709061419c565b915050610b26565b506040517f08c379a0000000000000000000000000000000000000000000000000000000008152600401610cab90613eb1565b60405180910390fd5b919050565b6060806060806060806060600060035490508067ffffffffffffffff811115610d0b577f4e487b7100000000000000000000000000000000000000000000000000000000600052604160045260246000fd5b604051908082528060200260200182016040528015610d395781602001602082028036833780820191505090505b5097508067ffffffffffffffff811115610d7c577f4e487b7100000000000000000000000000000000000000000000000000000000600052604160045260246000fd5b604051908082528060200260200182016040528015610daa5781602001602082028036833780820191505090505b5096508067ffffffffffffffff811115610ded577f4e487b7100000000000000000000000000000000000000000000000000000000600052604160045260246000fd5b604051908082528060200260200182016040528015610e2057816020015b6060815260200190600190039081610e0b5790505b5095508067ffffffffffffffff811115610e63577f4e487b7100000000000000000000000000000000000000000000000000000000600052604160045260246000fd5b604051908082528060200260200182016040528015610e915781602001602082028036833780820191505090505b5094508067ffffffffffffffff811115610ed4577f4e487b7100000000000000000000000000000000000000000000000000000000600052604160045260246000fd5b604051908082528060200260200182016040528015610f025781602001602082028036833780820191505090505b5093508067ffffffffffffffff811115610f45577f4e487b7100000000000000000000000000000000000000000000000000000000600052604160045260246000fd5b604051908082528060200260200182016040528015610f735781602001602082028036833780820191505090505b5092508067ffffffffffffffff811115610fb6577f4e487b7100000000000000000000000000000000000000000000000000000000600052604160045260246000fd5b604051908082528060200260200182016040528015610fe45781602001602082028036833780820191505090505b50915060005b81811015611373576000600260008381526020019081526020016000209050818a8381518110611043577f4e487b7100000000000000000000000000000000000000000000000000000000600052603260045260246000fd5b6020026020010181815250508060000160009054906101000a900473ffffffffffffffffffffffffffffffffffffffff168983815181106110ad577f4e487b7100000000000000000000000000000000000000000000000000000000600052603260045260246000fd5b602002602001019073ffffffffffffffffffffffffffffffffffffffff16908173ffffffffffffffffffffffffffffffffffffffff16815250508060010180546110f69061416a565b80601f01602080910402602001604051908101604052809291908181526020018280546111229061416a565b801561116f5780601f106111445761010080835404028352916020019161116f565b820191906000526020600020905b81548152906001019060200180831161115257829003601f168201915b50505050508883815181106111ad577f4e487b7100000000000000000000000000000000000000000000000000000000600052603260045260246000fd5b602002602001018190525080600201548783815181106111f6577f4e487b7100000000000000000000000000000000000000000000000000000000600052603260045260246000fd5b6020026020010181815250508060030154868381518110611240577f4e487b7100000000000000000000000000000000000000000000000000000000600052603260045260246000fd5b602002602001018181525050806005015485838151811061128a577f4e487b7100000000000000000000000000000000000000000000000000000000600052603260045260246000fd5b6020026020010181815250508060060160009054906101000a900460ff168483815181106112e1577f4e487b7100000000000000000000000000000000000000000000000000000000600052603260045260246000fd5b60200260200101906002811115611321577f4e487b7100000000000000000000000000000000000000000000000000000000600052602160045260246000fd5b9081600281111561135b577f4e487b7100000000000000000000000000000000000000000000000000000000600052602160045260246000fd5b8152505050808061136b9061419c565b915050610fea565b505090919293949596565b600460009054906101000a900473ffffffffffffffffffffffffffffffffffffffff1673ffffffffffffffffffffffffffffffffffffffff163373ffffffffffffffffffffffffffffffffffffffff161461140e576040517f08c379a000000000000000000000000000000000000000000000000000000000815260040161140590613e91565b60405180910390fd5b80600160008473ffffffffffffffffffffffffffffffffffffffff1673ffffffffffffffffffffffffffffffffffffffff16815260200190815260200160002090805190602001906114619291906130b0565b505050565b606080600060026000858152602001908152602001600020905060008160080180549050905060008167ffffffffffffffff8111156114ce577f4e487b7100000000000000000000000000000000000000000000000000000000600052604160045260246000fd5b6040519080825280602002602001820160405280156114fc5781602001602082028036833780820191505090505b50905060008267ffffffffffffffff811115611541577f4e487b7100000000000000000000000000000000000000000000000000000000600052604160045260246000fd5b60405190808252806020026020018201604052801561156f5781602001602082028036833780820191505090505b50905060005b83811015611757578460080181815481106115b9577f4e487b7100000000000000000000000000000000000000000000000000000000600052603260045260246000fd5b9060005260206000200160009054906101000a900473ffffffffffffffffffffffffffffffffffffffff1683828151811061161d577f4e487b7100000000000000000000000000000000000000000000000000000000600052603260045260246000fd5b602002602001019073ffffffffffffffffffffffffffffffffffffffff16908173ffffffffffffffffffffffffffffffffffffffff1681525050846007016000866008018381548110611699577f4e487b7100000000000000000000000000000000000000000000000000000000600052603260045260246000fd5b9060005260206000200160009054906101000a900473ffffffffffffffffffffffffffffffffffffffff1673ffffffffffffffffffffffffffffffffffffffff1673ffffffffffffffffffffffffffffffffffffffff16815260200190815260200160002054828281518110611738577f4e487b7100000000000000000000000000000000000000000000000000000000600052603260045260246000fd5b602002602001018181525050808061174f9061419c565b915050611575565b5081819550955050505050915091565b60026020528060005260406000206000915090508060000160009054906101000a900473ffffffffffffffffffffffffffffffffffffffff16908060010180546117b09061416a565b80601f01602080910402602001604051908101604052809291908181526020018280546117dc9061416a565b80156118295780601f106117fe57610100808354040283529160200191611829565b820191906000526020600020905b81548152906001019060200180831161180c57829003601f168201915b5050505050908060020154908060030154908060050154908060060160009054906101000a900460ff16905086565b6060806000806000806000808873ffffffffffffffffffffffffffffffffffffffff1673ffffffffffffffffffffffffffffffffffffffff16815260200190815260200160002090508060000181600101826002015483600301548460050160009054906101000a900460ff168480546118d19061416a565b80601f01602080910402602001604051908101604052809291908181526020018280546118fd9061416a565b801561194a5780601f1061191f5761010080835404028352916020019161194a565b820191906000526020600020905b81548152906001019060200180831161192d57829003601f168201915b5050505050945083805461195d9061416a565b80601f01602080910402602001604051908101604052809291908181526020018280546119899061416a565b80156119d65780601f106119ab576101008083540402835291602001916119d6565b820191906000526020600020905b8154815290600101906020018083116119b957829003601f168201915b50505050509350955095509550955095505091939590929450565b6000606060008060008060006002600089815260200190815260200160002090508060000160009054906101000a900473ffffffffffffffffffffffffffffffffffffffff16816001018260020154836003015484600501548560060160009054906101000a900460ff16848054611a689061416a565b80601f0160208091040260200160405190810160405280929190818152602001828054611a949061416a565b8015611ae15780601f10611ab657610100808354040283529160200191611ae1565b820191906000526020600020905b815481529060010190602001808311611ac457829003601f168201915b505050505094509650965096509650965096505091939550919395565b600460009054906101000a900473ffffffffffffffffffffffffffffffffffffffff1673ffffffffffffffffffffffffffffffffffffffff163373ffffffffffffffffffffffffffffffffffffffff161480611ba557506000600160003373ffffffffffffffffffffffffffffffffffffffff1673ffffffffffffffffffffffffffffffffffffffff1681526020019081526020016000208054611ba19061416a565b9050115b611be4576040517f08c379a0000000000000000000000000000000000000000000000000000000008152600401611bdb90613ef1565b60405180910390fd5b60008060008573ffffffffffffffffffffffffffffffffffffffff1673ffffffffffffffffffffffffffffffffffffffff168152602001908152602001600020905082816000019080519060200190611c3e9291906130b0565b5081816001019080519060200190611c579291906130b0565b50600081600201819055506000816003018190555060008160050160006101000a81548160ff0219169083151502179055506006849080600181540180825580915050600190039060005260206000200160009091909190916101000a81548173ffffffffffffffffffffffffffffffffffffffff021916908373ffffffffffffffffffffffffffffffffffffffff16021790555050505050565b600460009054906101000a900473ffffffffffffffffffffffffffffffffffffffff1673ffffffffffffffffffffffffffffffffffffffff163373ffffffffffffffffffffffffffffffffffffffff161480611d9957506000600160003373ffffffffffffffffffffffffffffffffffffffff1673ffffffffffffffffffffffffffffffffffffffff1681526020019081526020016000208054611d959061416a565b9050115b611dd8576040517f08c379a0000000000000000000000000000000000000000000000000000000008152600401611dcf90613ef1565b60405180910390fd5b60018110158015611dea575060058111155b611e29576040517f08c379a0000000000000000000000000000000000000000000000000000000008152600401611e2090613e31565b60405180910390fd5b806002600084815260200190815260200160002060070160003373ffffffffffffffffffffffffffffffffffffffff1673ffffffffffffffffffffffffffffffffffffffff168152602001908152602001600020819055505050565b600460009054906101000a900473ffffffffffffffffffffffffffffffffffffffff1673ffffffffffffffffffffffffffffffffffffffff163373ffffffffffffffffffffffffffffffffffffffff161480611f2c57506000600160003373ffffffffffffffffffffffffffffffffffffffff1673ffffffffffffffffffffffffffffffffffffffff1681526020019081526020016000208054611f289061416a565b9050115b611f6b576040517f08c379a0000000000000000000000000000000000000000000000000000000008152600401611f6290613ef1565b60405180910390fd5b60008060008373ffffffffffffffffffffffffffffffffffffffff1673ffffffffffffffffffffffffffffffffffffffff1681526020019081526020016000206000018054611fb99061416a565b905011611ffb576040517f08c379a0000000000000000000000000000000000000000000000000000000008152600401611ff290613e51565b60405180910390fd5b60006002811115612035577f4e487b7100000000000000000000000000000000000000000000000000000000600052602160045260246000fd5b6002600084815260200190815260200160002060060160009054906101000a900460ff166002811115612091577f4e487b7100000000000000000000000000000000000000000000000000000000600052602160045260246000fd5b146120d1576040517f08c379a00000000000000000000000000000000000000000000000000000000081526004016120c890613e71565b60405180910390fd5b6005546000808373ffffffffffffffffffffffffffffffffffffffff1673ffffffffffffffffffffffffffffffffffffffff1681526020019081526020016000206004016000848152602001908152602001600020819055506005600081548092919061213d9061419c565b919050555060016002600084815260200190815260200160002060060160006101000a81548160ff021916908360028111156121a2577f4e487b7100000000000000000000000000000000000000000000000000000000600052602160045260246000fd5b02179055505050565b60006002600084815260200190815260200160002060070160008373ffffffffffffffffffffffffffffffffffffffff1673ffffffffffffffffffffffffffffffffffffffff16815260200190815260200160002054905092915050565b60008060003373ffffffffffffffffffffffffffffffffffffffff1673ffffffffffffffffffffffffffffffffffffffff16815260200190815260200160002060000180546122579061416a565b905011612299576040517f08c379a000000000000000000000000000000000000000000000000000000000815260040161229090613d91565b60405180910390fd5b600081101580156122ab575060648111155b6122ea576040517f08c379a00000000000000000000000000000000000000000000000000000000081526004016122e190613db1565b60405180910390fd5b806000803373ffffffffffffffffffffffffffffffffffffffff1673ffffffffffffffffffffffffffffffffffffffff1681526020019081526020016000206004016000848152602001908152602001600020819055505050565b60008060008373ffffffffffffffffffffffffffffffffffffffff1673ffffffffffffffffffffffffffffffffffffffff168152602001908152602001600020600401600084815260200190815260200160002054905092915050565b606080600060026000858152602001908152602001600020905060008160080180549050905060008167ffffffffffffffff81111561240a577f4e487b7100000000000000000000000000000000000000000000000000000000600052604160045260246000fd5b6040519080825280602002602001820160405280156124385781602001602082028036833780820191505090505b50905060008267ffffffffffffffff81111561247d577f4e487b7100000000000000000000000000000000000000000000000000000000600052604160045260246000fd5b6040519080825280602002602001820160405280156124ab5781602001602082028036833780820191505090505b50905060005b83811015612693578460080181815481106124f5577f4e487b7100000000000000000000000000000000000000000000000000000000600052603260045260246000fd5b9060005260206000200160009054906101000a900473ffffffffffffffffffffffffffffffffffffffff16838281518110612559577f4e487b7100000000000000000000000000000000000000000000000000000000600052603260045260246000fd5b602002602001019073ffffffffffffffffffffffffffffffffffffffff16908173ffffffffffffffffffffffffffffffffffffffff16815250508460040160008660080183815481106125d5577f4e487b7100000000000000000000000000000000000000000000000000000000600052603260045260246000fd5b9060005260206000200160009054906101000a900473ffffffffffffffffffffffffffffffffffffffff1673ffffffffffffffffffffffffffffffffffffffff1673ffffffffffffffffffffffffffffffffffffffff16815260200190815260200160002054828281518110612674577f4e487b7100000000000000000000000000000000000000000000000000000000600052603260045260246000fd5b602002602001018181525050808061268b9061419c565b9150506124b1565b5081819550955050505050915091565b600460009054906101000a900473ffffffffffffffffffffffffffffffffffffffff1673ffffffffffffffffffffffffffffffffffffffff163373ffffffffffffffffffffffffffffffffffffffff16148061274a57506000600160003373ffffffffffffffffffffffffffffffffffffffff1673ffffffffffffffffffffffffffffffffffffffff16815260200190815260200160002080546127469061416a565b9050115b612789576040517f08c379a000000000000000000000000000000000000000000000000000000000815260040161278090613ef1565b60405180910390fd5b600060026000848152602001908152602001600020905080600301543410156127e7576040517f08c379a00000000000000000000000000000000000000000000000000000000081526004016127de90613df1565b60405180910390fd5b60028160060160006101000a81548160ff02191690836002811115612835577f4e487b7100000000000000000000000000000000000000000000000000000000600052602160045260246000fd5b02179055506000808373ffffffffffffffffffffffffffffffffffffffff1673ffffffffffffffffffffffffffffffffffffffff168152602001908152602001600020600301600081548092919061288c9061419c565b91905055506000808373ffffffffffffffffffffffffffffffffffffffff1673ffffffffffffffffffffffffffffffffffffffff16815260200190815260200160002060020160008154809291906128e39061419c565b919050555060008273ffffffffffffffffffffffffffffffffffffffff16826003015460405161291290613b64565b60006040518083038185875af1925050503d806000811461294f576040519150601f19603f3d011682016040523d82523d6000602084013e612954565b606091505b5050905080612998576040517f08c379a000000000000000000000000000000000000000000000000000000000815260040161298f90613e11565b60405180910390fd5b50505050565b60006002600084815260200190815260200160002060040160008373ffffffffffffffffffffffffffffffffffffffff1673ffffffffffffffffffffffffffffffffffffffff16815260200190815260200160002054905092915050565b60008060003373ffffffffffffffffffffffffffffffffffffffff1673ffffffffffffffffffffffffffffffffffffffff1681526020019081526020016000206000018054612a4a9061416a565b905011612a8c576040517f08c379a0000000000000000000000000000000000000000000000000000000008152600401612a8390613d91565b60405180910390fd5b600060026000848152602001908152602001600020905060006002811115612add577f4e487b7100000000000000000000000000000000000000000000000000000000600052602160045260246000fd5b8160060160009054906101000a900460ff166002811115612b27577f4e487b7100000000000000000000000000000000000000000000000000000000600052602160045260246000fd5b14612b67576040517f08c379a0000000000000000000000000000000000000000000000000000000008152600401612b5e90613ed1565b60405180910390fd5b60008211612baa576040517f08c379a0000000000000000000000000000000000000000000000000000000008152600401612ba190613dd1565b60405180910390fd5b818160040160003373ffffffffffffffffffffffffffffffffffffffff1673ffffffffffffffffffffffffffffffffffffffff16815260200190815260200160002081905550806005016000815480929190612c059061419c565b919050555080600801339080600181540180825580915050600190039060005260206000200160009091909190916101000a81548173ffffffffffffffffffffffffffffffffffffffff021916908373ffffffffffffffffffffffffffffffffffffffff160217905550505050565b60055481565b60068181548110612c8a57600080fd5b906000526020600020016000915054906101000a900473ffffffffffffffffffffffffffffffffffffffff1681565b6000602052806000526040600020600091509050806000018054612cdc9061416a565b80601f0160208091040260200160405190810160405280929190818152602001828054612d089061416a565b8015612d555780601f10612d2a57610100808354040283529160200191612d55565b820191906000526020600020905b815481529060010190602001808311612d3857829003601f168201915b505050505090806001018054612d6a9061416a565b80601f0160208091040260200160405190810160405280929190818152602001828054612d969061416a565b8015612de35780601f10612db857610100808354040283529160200191612de3565b820191906000526020600020905b815481529060010190602001808311612dc657829003601f168201915b5050505050908060020154908060030154908060050160009054906101000a900460ff16905085565b60016020528060005260406000206000915090508054612e2b9061416a565b80601f0160208091040260200160405190810160405280929190818152602001828054612e579061416a565b8015612ea45780601f10612e7957610100808354040283529160200191612ea4565b820191906000526020600020905b815481529060010190602001808311612e8757829003601f168201915b505050505081565b600460009054906101000a900473ffffffffffffffffffffffffffffffffffffffff1673ffffffffffffffffffffffffffffffffffffffff163373ffffffffffffffffffffffffffffffffffffffff161480612f5357506000600160003373ffffffffffffffffffffffffffffffffffffffff1673ffffffffffffffffffffffffffffffffffffffff1681526020019081526020016000208054612f4f9061416a565b9050115b612f92576040517f08c379a0000000000000000000000000000000000000000000000000000000008152600401612f8990613ef1565b60405180910390fd5b60006002600060035481526020019081526020016000209050338160000160006101000a81548173ffffffffffffffffffffffffffffffffffffffff021916908373ffffffffffffffffffffffffffffffffffffffff160217905550838160010190805190602001906130069291906130b0565b5082816002018190555081816003018190555060008160060160006101000a81548160ff02191690836002811115613067577f4e487b7100000000000000000000000000000000000000000000000000000000600052602160045260246000fd5b02179055506003600081548092919061307f9061419c565b919050555050505050565b600460009054906101000a900473ffffffffffffffffffffffffffffffffffffffff1681565b8280546130bc9061416a565b90600052602060002090601f0160209004810192826130de5760008555613125565b82601f106130f757805160ff1916838001178555613125565b82800160010185558215613125579182015b82811115613124578251825591602001919060010190613109565b5b5090506131329190613136565b5090565b5b8082111561314f576000816000905550600101613137565b5090565b600061316661316184613f5d565b613f2c565b90508281526020810184848401111561317e57600080fd5b613189848285614128565b509392505050565b6000813590506131a0816142c6565b92915050565b6000813590506131b5816142dd565b92915050565b600082601f8301126131cc57600080fd5b81356131dc848260208601613153565b91505092915050565b6000813590506131f4816142f4565b92915050565b60006020828403121561320c57600080fd5b600061321a84828501613191565b91505092915050565b6000806040838503121561323657600080fd5b600061324485828601613191565b925050602083013567ffffffffffffffff81111561326157600080fd5b61326d858286016131bb565b9150509250929050565b60008060006060848603121561328c57600080fd5b600061329a86828701613191565b935050602084013567ffffffffffffffff8111156132b757600080fd5b6132c3868287016131bb565b925050604084013567ffffffffffffffff8111156132e057600080fd5b6132ec868287016131bb565b9150509250925092565b60008060006060848603121561330b57600080fd5b600084013567ffffffffffffffff81111561332557600080fd5b613331868287016131bb565b9350506020613342868287016131e5565b9250506040613353868287016131e5565b9150509250925092565b60006020828403121561336f57600080fd5b600061337d848285016131e5565b91505092915050565b6000806040838503121561339957600080fd5b60006133a7858286016131e5565b92505060206133b885828601613191565b9150509250929050565b600080604083850312156133d557600080fd5b60006133e3858286016131e5565b92505060206133f4858286016131a6565b9150509250929050565b6000806040838503121561341157600080fd5b600061341f858286016131e5565b9250506020613430858286016131e5565b9150509250929050565b60006134468383613496565b60208301905092915050565b600061345e8383613652565b60208301905092915050565b60006134768383613670565b905092915050565b600061348a8383613b46565b60208301905092915050565b61349f816140a9565b82525050565b6134ae816140a9565b82525050565b60006134bf82613fcd565b6134c98185614038565b93506134d483613f8d565b8060005b838110156135055781516134ec888261343a565b97506134f783614004565b9250506001810190506134d8565b5085935050505092915050565b600061351d82613fd8565b613527818561406b565b935061353283613f9d565b8060005b8381101561356357815161354a8882613452565b975061355583614011565b925050600181019050613536565b5085935050505092915050565b600061357b82613fe3565b6135858185614049565b93508360208202850161359785613fad565b8060005b858110156135d357848403895281516135b4858261346a565b94506135bf8361401e565b925060208a0199505060018101905061359b565b50829750879550505050505092915050565b60006135f082613fee565b6135fa818561405a565b935061360583613fbd565b8060005b8381101561363657815161361d888261347e565b97506136288361402b565b925050600181019050613609565b5085935050505092915050565b61364c816140cd565b82525050565b61365b81614116565b82525050565b61366a81614116565b82525050565b600061367b82613ff9565b6136858185614087565b9350613695818560208601614137565b61369e816142a1565b840191505092915050565b60006136b482613ff9565b6136be8185614098565b93506136ce818560208601614137565b6136d7816142a1565b840191505092915050565b60006136ef602383614098565b91507f54656e64657220697320616c726561647920636c6f736564206f72206177617260008301527f64656400000000000000000000000000000000000000000000000000000000006020830152604082019050919050565b6000613755603383614098565b91507f4f6e6c79207265676973746572656420636f6e74726163746f72732063616e2060008301527f706572666f726d207468697320616374696f6e000000000000000000000000006020830152604082019050919050565b60006137bb602483614098565b91507f50657263656e74616765206d757374206265206265747765656e203020616e6460008301527f20313030000000000000000000000000000000000000000000000000000000006020830152604082019050919050565b6000613821602483614098565b91507f42696420616d6f756e74206d7573742062652067726561746572207468616e2060008301527f7a65726f000000000000000000000000000000000000000000000000000000006020830152604082019050919050565b6000613887601783614098565b91507f496e73756666696369656e742045746865722073656e740000000000000000006000830152602082019050919050565b60006138c7601583614098565b91507f4574686572207472616e73666572206661696c656400000000000000000000006000830152602082019050919050565b6000613907601e83614098565b91507f526174696e67206d757374206265206265747765656e203120616e64203500006000830152602082019050919050565b6000613947601983614098565b91507f436f6e74726163746f7220646f6573206e6f74206578697374000000000000006000830152602082019050919050565b6000613987601283614098565b91507f54656e646572206973206e6f74206f70656e00000000000000000000000000006000830152602082019050919050565b60006139c7602283614098565b91507f4f6e6c792061646d696e2063616e20706572666f726d2074686973206163746960008301527f6f6e0000000000000000000000000000000000000000000000000000000000006020830152604082019050919050565b6000613a2d60008361407c565b9150600082019050919050565b6000613a47603183614098565b91507f4e6f20636f6e74726163746f722069732061737369676e656420746f2074686560008301527f207370656369666965642074656e6465720000000000000000000000000000006020830152604082019050919050565b6000613aad601e83614098565b91507f54656e646572206973206e6f74206f70656e20666f722062696464696e6700006000830152602082019050919050565b6000613aed603183614098565b91507f4f6e6c7920676f7665726e6d656e74206f6666696369616c732063616e20706560008301527f72666f726d207468697320616374696f6e0000000000000000000000000000006020830152604082019050919050565b613b4f8161410c565b82525050565b613b5e8161410c565b82525050565b6000613b6f82613a20565b9150819050919050565b6000602082019050613b8e60008301846134a5565b92915050565b600060c082019050613ba960008301896134a5565b8181036020830152613bbb81886136a9565b9050613bca6040830187613b55565b613bd76060830186613b55565b613be46080830185613b55565b613bf160a0830184613661565b979650505050505050565b60006040820190508181036000830152613c1681856134b4565b90508181036020830152613c2a81846135e5565b90509392505050565b600060e0820190508181036000830152613c4d818a6135e5565b90508181036020830152613c6181896134b4565b90508181036040830152613c758188613570565b90508181036060830152613c8981876135e5565b90508181036080830152613c9d81866135e5565b905081810360a0830152613cb181856135e5565b905081810360c0830152613cc58184613512565b905098975050505050505050565b6000602082019050613ce86000830184613643565b92915050565b60006020820190508181036000830152613d0881846136a9565b905092915050565b600060a0820190508181036000830152613d2a81886136a9565b90508181036020830152613d3e81876136a9565b9050613d4d6040830186613b55565b613d5a6060830185613b55565b613d676080830184613643565b9695505050505050565b60006020820190508181036000830152613d8a816136e2565b9050919050565b60006020820190508181036000830152613daa81613748565b9050919050565b60006020820190508181036000830152613dca816137ae565b9050919050565b60006020820190508181036000830152613dea81613814565b9050919050565b60006020820190508181036000830152613e0a8161387a565b9050919050565b60006020820190508181036000830152613e2a816138ba565b9050919050565b60006020820190508181036000830152613e4a816138fa565b9050919050565b60006020820190508181036000830152613e6a8161393a565b9050919050565b60006020820190508181036000830152613e8a8161397a565b9050919050565b60006020820190508181036000830152613eaa816139ba565b9050919050565b60006020820190508181036000830152613eca81613a3a565b9050919050565b60006020820190508181036000830152613eea81613aa0565b9050919050565b60006020820190508181036000830152613f0a81613ae0565b9050919050565b6000602082019050613f266000830184613b55565b92915050565b6000604051905081810181811067ffffffffffffffff82111715613f5357613f52614272565b5b8060405250919050565b600067ffffffffffffffff821115613f7857613f77614272565b5b601f19601f8301169050602081019050919050565b6000819050602082019050919050565b6000819050602082019050919050565b6000819050602082019050919050565b6000819050602082019050919050565b600081519050919050565b600081519050919050565b600081519050919050565b600081519050919050565b600081519050919050565b6000602082019050919050565b6000602082019050919050565b6000602082019050919050565b6000602082019050919050565b600082825260208201905092915050565b600082825260208201905092915050565b600082825260208201905092915050565b600082825260208201905092915050565b600081905092915050565b600082825260208201905092915050565b600082825260208201905092915050565b60006140b4826140ec565b9050919050565b60006140c6826140ec565b9050919050565b60008115159050919050565b60008190506140e7826142b2565b919050565b600073ffffffffffffffffffffffffffffffffffffffff82169050919050565b6000819050919050565b6000614121826140d9565b9050919050565b82818337600083830152505050565b60005b8381101561415557808201518184015260208101905061413a565b83811115614164576000848401525b50505050565b6000600282049050600182168061418257607f821691505b6020821081141561419657614195614243565b5b50919050565b60006141a78261410c565b91507fffffffffffffffffffffffffffffffffffffffffffffffffffffffffffffffff8214156141da576141d96141e5565b5b600182019050919050565b7f4e487b7100000000000000000000000000000000000000000000000000000000600052601160045260246000fd5b7f4e487b7100000000000000000000000000000000000000000000000000000000600052602160045260246000fd5b7f4e487b7100000000000000000000000000000000000000000000000000000000600052602260045260246000fd5b7f4e487b7100000000000000000000000000000000000000000000000000000000600052604160045260246000fd5b6000601f19601f8301169050919050565b600381106142c3576142c2614214565b5b50565b6142cf816140a9565b81146142da57600080fd5b50565b6142e6816140bb565b81146142f157600080fd5b50565b6142fd8161410c565b811461430857600080fd5b5056fea264697066735822122071ce11033d379c48552d5824dcee06453966dabd0a4b8000990ca2a3d51b893264736f6c63430008000033",
  "immutableReferences": {},
  "source": "// SPDX-License-Identifier: MIT\r\npragma solidity ^0.8.0;\r\n\r\ncontract TenderManagement {\r\n    enum TenderStatus { Open, Closed, Awarded }\r\n\r\n    struct Tender {\r\n        address governmentOfficial;\r\n        string description;\r\n        uint deadline;\r\n        uint budget;\r\n        mapping(address => uint) bids;\r\n        uint totalBids;\r\n        TenderStatus status;\r\n        mapping(address => uint) feedbacks;\r\n        address[] bidderAddresses;\r\n    }\r\n    \r\n    struct Contractor {\r\n        string name;\r\n        string description;\r\n        uint reputation;\r\n        uint totalContracts;\r\n        mapping(uint => uint) contractsInProgress;\r\n        bool isBlacklisted;\r\n    }\r\n    event EtherReceived(address indexed sender, uint amount);\r\n\r\n    // Function to receive Ether\r\n    receive() external payable {\r\n        emit EtherReceived(msg.sender, msg.value);\r\n    }\r\n    \r\n    mapping(address => Contractor) public contractors;\r\n    mapping(address => string) public governmentOfficials;\r\n    mapping(uint => Tender) public tenders;\r\n    uint public tenderCount;\r\n    address public admin;\r\n    uint public contractsCounter;\r\n    address[] public contractorsAddresses; \r\n\r\n    constructor() {\r\n        admin = msg.sender;\r\n    }\r\n\r\n    modifier onlyAdmin() {\r\n        require(msg.sender == admin, \"Only admin can perform this action\");\r\n        _;\r\n    }\r\n\r\n    modifier onlyGovernmentOfficial() {\r\n        require(msg.sender == admin || bytes(governmentOfficials[msg.sender]).length > 0, \"Only government officials can perform this action\");\r\n        _;\r\n    }\r\n\r\n    modifier onlyContractor() {\r\n        require(bytes(contractors[msg.sender].name).length > 0, \"Only registered contractors can perform this action\");\r\n        _;\r\n    }\r\n\r\n    function addGovernmentOfficial(address _official, string memory _name) public onlyAdmin {\r\n        governmentOfficials[_official] = _name;\r\n    }\r\n\r\n    function createTender(string memory _description, uint _deadline, uint _budget) public onlyGovernmentOfficial {\r\n        Tender storage newTender = tenders[tenderCount];\r\n        newTender.governmentOfficial = msg.sender;\r\n        newTender.description = _description;\r\n        newTender.deadline = _deadline;\r\n        newTender.budget = _budget;\r\n        newTender.status = TenderStatus.Open;\r\n        tenderCount++;\r\n    }\r\n\r\n    function submitBid(uint _tenderId, uint _bidAmount) public onlyContractor {\r\n        Tender storage tender = tenders[_tenderId];\r\n        require(tender.status == TenderStatus.Open, \"Tender is not open for bidding\");\r\n        require(_bidAmount > 0, \"Bid amount must be greater than zero\");\r\n        tender.bids[msg.sender] = _bidAmount;\r\n        tender.totalBids++;\r\n        tender.bidderAddresses.push(msg.sender);\r\n    }\r\n\r\n    function provideFeedback(uint _tenderId, uint _rating) public onlyGovernmentOfficial() {\r\n        require(_rating >= 1 && _rating <= 5, \"Rating must be between 1 and 5\");\r\n        tenders[_tenderId].feedbacks[msg.sender] = _rating;\r\n    }\r\n     function blacklistContractor(address _contractorAddress) public onlyGovernmentOfficial {\r\n        contractors[_contractorAddress].isBlacklisted = true;\r\n    }\r\n     function checkContractorBlacklistStatus(address _contractorAddress) public view returns (bool) {\r\n        return contractors[_contractorAddress].isBlacklisted;\r\n    }\r\n    \r\n\r\n    function awardTender(uint _tenderId, address payable _winningBidder) public onlyGovernmentOfficial payable {\r\n    Tender storage tender = tenders[_tenderId];\r\n\r\n    \r\n\r\n    // Ensure that the amount sent is sufficient\r\n    require(msg.value >= tender.budget, \"Insufficient Ether sent\");\r\n\r\n    // Update tender status to Awarded\r\n    tender.status = TenderStatus.Awarded;\r\n\r\n    // Increment contractor's totalContracts and reputation\r\n    contractors[_winningBidder].totalContracts++;\r\n    contractors[_winningBidder].reputation++;\r\n\r\n    // Use call to transfer the Ether to the winning bidder\r\n    (bool success, ) = _winningBidder.call{value: tender.budget}(\"\");\r\n    require(success, \"Ether transfer failed\");\r\n}\r\n\r\n    function updateWorkProgress(uint _tenderId, uint _percentage) public onlyContractor {\r\n        require(_percentage >= 0 && _percentage <= 100, \"Percentage must be between 0 and 100\");\r\n        contractors[msg.sender].contractsInProgress[_tenderId] = _percentage;\r\n    }\r\n    function closeTender(uint _tenderId) public onlyGovernmentOfficial {\r\n        Tender storage tender = tenders[_tenderId];\r\n        require(tender.status == TenderStatus.Open, \"Tender is already closed or awarded\");\r\n        tender.status = TenderStatus.Closed;\r\n    }\r\n\r\n    function addContractor(address _contractorAddress, string memory _name, string memory _description) public onlyGovernmentOfficial {\r\n        Contractor storage newContractor = contractors[_contractorAddress];\r\n        newContractor.name = _name;\r\n        newContractor.description = _description;\r\n        newContractor.reputation = 0;\r\n        newContractor.totalContracts = 0;\r\n        newContractor.isBlacklisted = false;\r\n        contractorsAddresses.push(_contractorAddress);\r\n    }\r\n\r\n    function assignContract(uint _tenderId, address _contractorAddress) public onlyGovernmentOfficial {\r\n        require(bytes(contractors[_contractorAddress].name).length > 0, \"Contractor does not exist\");\r\n        require(tenders[_tenderId].status == TenderStatus.Open, \"Tender is not open\");\r\n        \r\n        contractors[_contractorAddress].contractsInProgress[_tenderId] = contractsCounter;\r\n        contractsCounter++;\r\n        \r\n        tenders[_tenderId].status = TenderStatus.Closed;\r\n    }\r\n\r\n    function getAssignedContract(uint _tenderId) public view returns (address contractorAddress) {\r\n        for (uint i = 0; i < contractorsAddresses.length; i++) {\r\n            Contractor storage contractor = contractors[contractorsAddresses[i]];\r\n            if (contractor.contractsInProgress[_tenderId] != 0) {\r\n                contractorAddress = contractorsAddresses[i];\r\n                return contractorAddress;\r\n            }\r\n        }\r\n        revert(\"No contractor is assigned to the specified tender\");\r\n    }\r\n\r\n    function getTenderDetails(uint _tenderId) public view returns (\r\n        address governmentOfficial,\r\n        string memory description,\r\n        uint deadline,\r\n        uint budget,\r\n        uint totalBids,\r\n        TenderStatus status\r\n    ) {\r\n        Tender storage tender = tenders[_tenderId];\r\n        return (\r\n            tender.governmentOfficial,\r\n            tender.description,\r\n            tender.deadline,\r\n            tender.budget,\r\n            tender.totalBids,\r\n            tender.status\r\n        );\r\n    }\r\n\r\n    function getBidAmount(uint _tenderId, address _bidder) public view returns (uint) {\r\n        return tenders[_tenderId].bids[_bidder];\r\n    }\r\n\r\n    function getFeedback(uint _tenderId, address _contractor) public view returns (uint) {\r\n        return tenders[_tenderId].feedbacks[_contractor];\r\n    }\r\n\r\n    function getContractorDetails(address _contractorAddress) public view returns (\r\n        string memory name,\r\n        string memory description,\r\n        uint reputation,\r\n        uint totalContracts,\r\n        bool isBlacklisted\r\n    ) {\r\n        Contractor storage contractor = contractors[_contractorAddress];\r\n        return (\r\n            contractor.name,\r\n            contractor.description,\r\n            contractor.reputation,\r\n            contractor.totalContracts,\r\n            contractor.isBlacklisted\r\n        );\r\n    }\r\n\r\n    function getContractorWorkProgress(uint _tenderId, address _contractor) public view returns (uint) {\r\n        return contractors[_contractor].contractsInProgress[_tenderId];\r\n    }\r\n\r\n    function getAllFeedback(uint _tenderId) public view returns (address[] memory, uint[] memory) {\r\n        Tender storage tender = tenders[_tenderId];\r\n        uint numFeedbacks = tender.bidderAddresses.length;\r\n        address[] memory feedbackAddresses = new address[](numFeedbacks);\r\n        uint[] memory ratings = new uint[](numFeedbacks);\r\n\r\n        for (uint i = 0; i < numFeedbacks; i++) {\r\n            feedbackAddresses[i] = tender.bidderAddresses[i];\r\n            ratings[i] = tender.feedbacks[tender.bidderAddresses[i]];\r\n        }\r\n\r\n        return (feedbackAddresses, ratings);\r\n    }\r\n\r\n    function getAllBids(uint _tenderId) public view returns (address[] memory, uint[] memory) {\r\n        Tender storage tender = tenders[_tenderId];\r\n        uint numBids = tender.bidderAddresses.length;\r\n        address[] memory bidderAddresses = new address[](numBids);\r\n        uint[] memory bidAmounts = new uint[](numBids);\r\n\r\n        for (uint i = 0; i < numBids; i++) {\r\n            bidderAddresses[i] = tender.bidderAddresses[i];\r\n            bidAmounts[i] = tender.bids[tender.bidderAddresses[i]];\r\n        }\r\n\r\n        return (bidderAddresses, bidAmounts);\r\n    }\r\n\r\n    function getAllTenders() public view returns (\r\n        uint[] memory tenderIds,\r\n        address[] memory officials,\r\n        string[] memory descriptions,\r\n        uint[] memory deadlines,\r\n        uint[] memory budgets,\r\n        uint[] memory totalBids,\r\n        TenderStatus[] memory statuses\r\n    ) {\r\n        uint numTenders = tenderCount;\r\n        tenderIds = new uint[](numTenders);\r\n        officials = new address[](numTenders);\r\n        descriptions = new string[](numTenders);\r\n        deadlines = new uint[](numTenders);\r\n        budgets = new uint[](numTenders);\r\n        totalBids = new uint[](numTenders);\r\n        statuses = new TenderStatus[](numTenders);\r\n\r\n        for (uint i = 0; i < numTenders; i++) {\r\n            Tender storage tender = tenders[i];\r\n            tenderIds[i] = i;\r\n            officials[i] = tender.governmentOfficial;\r\n            descriptions[i] = tender.description;\r\n            deadlines[i] = tender.deadline;\r\n            budgets[i] = tender.budget;\r\n            totalBids[i] = tender.totalBids;\r\n            statuses[i] = tender.status;\r\n        }\r\n\r\n        return (tenderIds, officials, descriptions, deadlines, budgets, totalBids, statuses);\r\n    }\r\n}\r\n",
  "sourcePath": "S:\\Semester-6\\CyberSecurity\\Tenders\\contracts\\TenderManagement.sol",
  "compiler": {
    "name": "solc",
    "version": "0.8.0+commit.c7dfd78e.Emscripten.clang"
  },
  "schemaVersion": "3.4.16",
  "updatedAt": "2024-04-29T05:42:44.404Z",
  "networkType": "ethereum",
  "devdoc": {
    "kind": "dev",
    "methods": {},
    "version": 1
  },
  "userdoc": {
    "kind": "user",
    "methods": {},
    "version": 1
  }
}